:020000040800F2
:10000000501000209D01000877110008D30F000850
:1000100075110008E50100089316000800000000B3
:10002000000000000000000000000000D9120008DD
:10003000E7010008000000009B110008DB12000827
:10004000B7010008B7010008B7010008B7010008B0
:10005000B7010008B7010008B7010008B7010008A0
:10006000B7010008B7010008B7010008B701000890
:10007000B7010008B7010008B7010008B701000880
:10008000B7010008B7010008B7010008B701000870
:10009000B7010008B7010008B7010008B701000860
:1000A000B7010008B7010008B7010008B701000850
:1000B000B7010008B7010008B7010008B701000840
:1000C000B7010008B7010008B7010008B701000830
:1000D000B7010008B7010008B7010008B701000820
:1000E000B7010008B7010008B7010008B701000810
:1000F000B7010008B7010008D9130008B7010008CC
:10010000B7010008B7010008B7010008B7010008EF
:10011000B7010008B7010008B7010008B7010008DF
:10012000B7010008B7010008B7010008B7010008CF
:10013000B7010008B7010008B7010008B7010008BF
:10014000B7010008B7010008B7010008B7010008AF
:10015000B7010008B7010008B7010008B70100089F
:10016000B7010008B7010008B7010008B70100088F
:10017000B7010008B7010008B7010008000000003F
:10018000B7010008B7010008DFF80CD000F018F83C
:1001900000480047B5160008501000200648804768
:1001A00006480047FEE7FEE7FEE7FEE7FEE7FEE75C
:1001B000FEE7FEE7FEE7FEE7851300088901000879
:1001C000064C074D06E0E06840F0010394E80700A4
:1001D00098471034AC42F6D3FFF7DAFFD81700087F
:1001E000F8170008FEE7704731B500F0EDF8009C05
:1001F0000546601C00D0641C00F0E6F8401BA042DD
:10020000FAD338BD2DE9F84FDFF87CB100224FF06A
:1002100001084FF0030A4FF00F090BF1040E00BF65
:100220000B6808FA02F42340A3426ED14D68022DF8
:1002300001D0122D0ED1D50800EB850CDCF8205032
:100240005607F70E09FA07F6B5430E69BE402E436E
:10025000CCF82060066855000F790AFA05FC07F013
:10026000030726EA0C06AF40374307604E68012EAD
:1002700005D0022E03D0112E01D0122E0ED1866889
:10028000CF6826EA0C06AF40374387604668A6432E
:100290000C79C4F30014944034434460C6688C68FD
:1002A00026EA0C06AC403443C4604C68E40065D5D3
:1002B000364C256845F480452560246822F0030506
:1002C00004F480440094324C2E19D6F8084895075F
:1002D0002F0F09FA07F5AC432E4DA84201D1002596
:1002E00024E02D4DA84201D101251FE02B4DA8424D
:1002F00001D102251AE02A4DA84201D1032515E0BB
:10030000284DA84202D1042510E037E0264DA8422E
:1003100001D105250AE0254DA84201D1062505E0B9
:10032000234DA84201D1072500E00825BD40254303
:10033000C6F80858DBF800405D464E689C43F6035B
:1003400000D51C432C60DEF8004075464E689C4387
:10035000B60300D51C432C600B4D08352C684E6845
:100360009C43F60200D51C432C60074D0C352C68CD
:100370004E689C43B60200D51C432C60521C102AC8
:10038000FFF44EAFBDE8F88F003C01404438024016
:10039000003001400000024000040240000802401A
:1003A000000C0240001002400014024000180240FD
:1003B000001C02400069084000D0012070470AB1CB
:1003C000816170470904FBE701480068704700003D
:1003D0000800002002480168491C016070470000C5
:1003E000080000200B4810B5016841F4007101605D
:1003F000016841F480610160016841F4807101602D
:10040000032000F075F8002000F006F800F018F85E
:10041000002010BD003C024010B5044607484FF4D0
:100420007A710068B0FBF1F000F01DFB002221465C
:10043000501E00F03DF8002010BD00000C00002010
:1004400010B5032000F054F8002211466FF00B00A5
:1004500000F02EF8002211466FF00A0000F028F894
:10046000002211466FF0090000F022F80022114628
:10047000501F00F01DF800221146101F00F018F860
:1004800000221146901E00F013F80022BDE8104033
:100490001146501E00F00CB800F01F0201219140DF
:1004A0004009800000F1E020C0F800117047000012
:1004B000F0B40E4B1B680C46C3F30223C3F10705CF
:1004C000042D00D90425191D072901D2002300E0BD
:1004D000DB1E012606FA05F1491E214099409E4087
:1004E000761E16403143F0BC00F047BE0CED00E034
:1004F000064900F0070208684FF6FF03184040EA7B
:100500000220034A10430860704700000CED00E031
:100510000000FA05704700002DE9F047DFF864910C
:1005200005460F46D9F8000000F00F01F8B28046EA
:10053000B94208D2014689F80010D9F8000000F04D
:100540000F00B84274D128784F4C800705D5206839
:10055000A96820F0F000084320602878C00759D02F
:1005600049496868083901281AD002281BD0032895
:1005700019D00968890700295ADA216821F0030196
:1005800001432160FFF720FF6968064641F2883089
:10059000012911D002291DD00329824627D035E038
:1005A00009688903E7E709688901E4E7FFF70CFFB9
:1005B000811B514501D926E082462068C0F38100A5
:1005C0000128F3D126E000BFFFF7FEFE811B514555
:1005D00001D918E082462068C0F381000228F3D1D7
:1005E00018E000BFFFF7F0FE811B51450BD82068D3
:1005F000C0F381000328F5D10CE000BFFFF7E4FE53
:10060000811B514502D90320BDE8F087206810F016
:100610000C0FF3D1D9F80010484601F00F01B94290
:1006200008D980F80080006800F00F00B84201D0BF
:100630000120E9E72878400705D52068E96820F41B
:10064000E050084320602878000706D52068296913
:1006500020F4604040EAC100206000F027F82168E3
:10066000F02292FAA2F201F0F001B2FA82F2D14045
:10067000064A515CC840064908600020FFF7CCFEDE
:100680000020C1E7003C024008380240C8170008BB
:100690000C00002001490120C86470470000474257
:1006A00001480068704700000C00002030B5194870
:1006B000006810F00C01184812D0441004290ED024
:1006C00008290DD11349091F0A6802F03F030A687F
:1006D000550247F6C07204D5B4FBF3F003E02046A0
:1006E00030BDB0FBF3F00B680968134092FAA2F238
:1006F000B2FA82F2D34058434FF4403292FAA2F257
:1007000001F44031B2FA82F2D140491C4900B0FBF9
:10071000F1F030BD083802400024F400054810B55F
:100720000068000605D5FFF7F5FE02498020891C08
:10073000087010BD0C3802402DE9F84F0546DFF86F
:10074000FC920078A9F1040BC007ABF1040449D076
:10075000D9F800104846C1F38101012908D000688A
:10076000C0F3810002280AD1DBF80000400206D560
:100770002068800336D5686800286ED032E068684B
:10078000B0F5803F10D0B0F5A02F206810D020F435
:1007900080302060206820F4802020606868A0B14C
:1007A000FFF712FE06460CE0206840F48030F4E7C4
:1007B00040F480202060F7E7FFF706FE801B6428E6
:1007C00071D820688003F7D50CE0FFF7FDFD0646E1
:1007D00005E000BFFFF7F8FD801B6428F0D8206813
:1007E0008003F7D42878964F80074FF0010A4FF026
:1007F000000841D5D9F80010484611F00C0F08D078
:100800000068C0F3810002280AD1DBF80000400232
:1008100006D42068800713D5E86801281DD10FE0B1
:10082000E868D8B1C7F800A0FFF7CEFD064604E09F
:10083000FFF7CAFD801B0228C2D820688007F7D5C1
:100840002068F82292FAA2F22969B2FA82F220F024
:10085000F8009140084320600EE0ECE0C7F800800B
:10086000FFF7B2FD064604E0FFF7AEFD801B02284D
:1008700019D820688007F7D42878000724D5714854
:10088000696989B1C0F800A0FFF79EFD064604E043
:10089000FFF79AFD801B022805D868486C30006875
:1008A0008007F5D510E07AE0C0F80080FFF78CFDF6
:1008B000064604E0FFF788FD801B02286FD85F48DA
:1008C0006C3000688007F5D42878400753D55B4822
:1008D0003830016841F080510160006800F08050BC
:1008E00000905948016841F480710160FFF76CFD88
:1008F000064604E0FFF768FD801B02284FD85248E7
:100900000068C005F6D54D4EA868683601280FD09E
:100910000528306810D020F001003060306820F0E9
:1009200004003060A868B8B1FFF74EFD00900FE0FA
:10093000306840F00100F4E740F004003060F7E771
:10094000FFF742FD0099411A41F2883081426AD88E
:1009500030688007F4D50EE0FFF736FD009007E021
:10096000FFF732FD0099411A41F2883081425AD88E
:1009700030688007F4D4A869E8B3D9F80010C1F34F
:100980008101022957D00228C7F8608003D0FFF701
:100990001BFD05464AE0FFF717FD064605E042E06D
:1009A000FFF712FD801B02283DD820688001F7D494
:1009B000D5E90701084347F6C07292FAA2F2696AC4
:1009C000B2FA82F29140AA6A4FF0FF3303EB52026F
:1009D0004FF4403393FAA3F3B3FA83F39A401143ED
:1009E00008434FF0706292FAA2F2E96AB2FA82F218
:1009F0009140084300E01CE0CBF80000C7F860A07D
:100A0000FFF7E2FC054604E0FFF7DEFC401B02288E
:100A100009D820688001F7D50BE000BFFFF7D4FCB0
:100A2000401B022802D90320BDE8F88F206880010E
:100A3000F4D40020F8E70120F6E70000083802406F
:100A400000004742800E4742007000404FF0E02116
:100A50000428086903D020F004000861704740F0C2
:100A60000400FAE7704710B5401EB0F1807F01D353
:100A7000012010BD4FF0E02460610F21601700F0ED
:100A80007CFB0020A06107202061002010BD10B574
:100A9000FFF7E8FF10BD7047704710B590F8382099
:100AA000012A25D0012280F83820CA688C6822F4F7
:100AB000407222434C6822F4806222430C6822F484
:100AC000006222430C6922F4805222434C6922F4D2
:100AD000005222438C6922F48042224322F40041D6
:100AE000026800232143516480F83830002010BD93
:100AF000022010BD30B590F83820012A20D0012204
:100B000080F83820022380F8393003685C6824F0CC
:100B100070045C6003685C680D682C435C6003686B
:100B20009C6824F080049C6003689C6849680C43BE
:100B30009C6080F83920002180F83810084630BDCC
:100B4000022030BD10B5040003D094F8390010B174
:100B500007E0012010BD002084F83800204600F096
:100B60000DF8022084F83900211D206800F03AFCBD
:100B7000012084F83900002010BD000008B500688D
:100B80000649884208D10648016841F00201016027
:100B9000006800F00200009008BD00000004014061
:100BA00044380240022180F8391001680A6842F096
:100BB00001020A60012180F839100020704770B5E9
:100BC000044690F83800012817D0012584F83850E1
:100BD000022084F839002068826822F0770222F42B
:100BE0007F4282600868502837D00DDC202859D019
:100BF00005DC88B3102841D151E0022070BD3028B7
:100C000053D040283AD13FE060282ED070280BD036
:100C1000B0F5805F03D0B0F5005F2FD110E0206801
:100C2000816821F0070115E0CB68D1E90121206836
:100C300000F043FC2168886840F0770088601DE080
:100C4000CB68D1E90121206800F037FC2068816879
:100C500041F48041816011E01EE0CA684968206863
:100C600000F0F4FC5021206806E0CA68496820685A
:100C700000F0FDFC6021206800F029FC84F8395068
:100C8000002084F8380070BDCA684968206800F008
:100C9000DDFC40212068EFE700212068ECE710210F
:100CA0002068E9E720212068E6E730212068E3E7B3
:100CB000704770B50446006801694FF00005C943EC
:100CC000890715D4C168C943890711D4E91E016198
:100CD00001202076206880698007204602D0FFF737
:100CE000E7FF04E000F0C4F8204600F06FF9257635
:100CF00020680169C943490717D4C168C943490736
:100D000013D46FF00401016102202076206880690D
:100D100010F4407F204602D0FFF7CAFF04E000F045
:100D2000A7F8204600F052F9257620680169C943EA
:100D3000090716D4C168C943090712D46FF0080126
:100D40000161042020762068C0698007204602D017
:100D5000FFF7AEFF04E000F08BF8204600F036F914
:100D6000257620680169C943C90617D4C168C943FB
:100D7000C90613D46FF010010161082020762068A5
:100D8000C06910F4407F204602D0FFF791FF04E0D5
:100D900000F06EF8204600F019F925762068016908
:100DA000C943C90708D1C168C943C90704D1891E0D
:100DB0000161204600F00BF920680169C94309066A
:100DC00009D4C168C943090605D46FF080010161E7
:100DD0002046FFF760FE20680169C943490609D42F
:100DE000C168C943490605D46FF04001016120463E
:100DF00000F0EEF820680169C94389060BD4C16888
:100E0000C943890607D46FF0200101612046BDE87F
:100E10007040FFF741BE70BD70B5044690F83800D1
:100E200001280DD0012584F83850022084F83900BB
:100E300042B1042A0AD0082A0CD00C2A11D10DE0A4
:100E4000022070BD206800F04BFB0AE0206800F033
:100E500073FB06E0206800F0A1FB02E0206800F0D0
:100E6000CDFB84F83950002084F8380070BD0000B4
:100E7000084808B50068416AADF80010BDF80010D8
:100E8000054A12881144416304484168491C416085
:100E900008BD000014000020100000200000002009
:100EA00010B5040003D094F8390010B107E0012018
:100EB00010BD002084F83800204600F00CF8022015
:100EC00084F83900211D206800F08CFA012084F894
:100ED0003900002010BD704710B50268044631B1DA
:100EE000042908D0082920D00C2908D121E0D06895
:100EF00040F0020002E0D06840F00400D06001221F
:100F0000206800F0CFFA0D492068884202D00C49D1
:100F1000884203D1416C41F400414164206801687A
:100F200041F001010160002010BDD06840F00800D0
:100F3000E4E7D06840F01000E0E700000000014066
:100F40000004014010B50268044631B1042908D0FC
:100F500008292FD00C2908D130E0D06820F00200F9
:100F600002E0D06820F00400D0600022206800F089
:100F700099FA144841F2111321689A10814202D063
:100F80001148814209D1086A184206D1086A104204
:100F900003D1486C20F4004048642068016A19427B
:100FA00006D1016A114203D1016821F001010160FB
:100FB000002010BDD06820F00800D5E7D06820F0F0
:100FC0001000D1E700000140000401407047704765
:100FD0007047FEE710B50C4C01212046FFF7EAF9F7
:100FE00038B91420FFF700F901212046FFF7E2F994
:100FF00008B1002010BD01212046FFF7DBF90028D1
:10100000F9D0012010BD00000010024010B50C4CBA
:1010100002212046FFF7CEF938B91420FFF7E4F893
:1010200002212046FFF7C6F908B1002010BD0221B9
:101030002046FFF7BFF90028F9D0012010BD0000BD
:101040000010024010B50C4C04212046FFF7B2F905
:1010500038B91420FFF7C8F804212046FFF7AAF991
:1010600008B1002010BD04212046FFF7A3F9002895
:10107000F9D0012010BD00000010024010B50C4C4A
:1010800008212046FFF796F938B91420FFF7ACF88D
:1010900008212046FFF78EF908B1002010BD082175
:1010A0002046FFF787F90028F9D0012010BD000085
:1010B0000010024010B50C4C10212046FFF77AF9C1
:1010C00038B91420FFF790F810212046FFF772F985
:1010D00008B1002010BD10212046FFF76BF9002851
:1010E000F9D0012010BD00000010024070B51F486B
:1010F00086B00024016841F010010160016801F030
:1011000010010591016841F010010160006801259E
:10111000CDE9005400F01000CDE90440144E6946BA
:1011200002953046FFF76EF802208DE831006946DF
:1011300030460494FFF766F804208DE831006946D4
:1011400030460494FFF75EF808208DE831006946C8
:1011500030460494FFF756F810208DE831006946B8
:1011600030460494FFF74EF806B070BD30380240A8
:1011700000100240FEE7FFF7D1BA0907090E002868
:1011800006DA00F00F0000F1E02080F8141D70472F
:1011900000F1E02080F8001470477047F0B5234854
:1011A00087B00025016841F480710160016801F495
:1011B00080710591016841F008010160016801F04A
:1011C00008010591016841F00801016000680224EE
:1011D00000F0080005902020CDE900040320CDE9AF
:1011E000034069461248FFF70DF808200126CDE9B3
:1011F0000006104F69463846CDE90345FFF702F86F
:101200008020CDE9000669463846CDE90345FEF762
:10121000F9FF002208213846FFF7D1F8002280218B
:101220003846FFF7CCF807B0F0BD00003038024078
:1012300000200240000C024010B5254894B023491C
:10124000016005210024C0E901144FF6FF71C0E9D7
:1012500003144461FFF776FC4FF480500E900EA902
:101260001B48FFF7ACFC1A48FFF71AFE129412A9AC
:1012700017481394FFF73EFC00944FF40050CDE95B
:101280000440019402940394694611480694FFF7C0
:1012900004FC302007900F480088CDE9080408209E
:1012A000CDE90A040C94002207A909480D94FFF720
:1012B000B3FDFFF773FF002211462E20FFF7F8F869
:1012C0002E20FFF7E9F814B010BD00000004014023
:1012D0001400002010000020704710B5FFF77AF8C6
:1012E000BDE81040FFF7D3BB30B5244893B00025CC
:1012F000016841F080510160006800F08050119059
:101300001F48016841F4804101600068022400F434
:101310008040119001200090000401908001CDE9EF
:101320000640082008904FF4A870CDE90904072072
:101330000B906846FFF700FA0CA90F2081E83100F6
:101340004FF4A0500F90E002109005210CA8FFF779
:10135000E3F8FFF79FF9FFF7A3F94FF47A71B0FBB9
:10136000F1F0FFF780FB0420FFF770FB002211462D
:10137000501EFFF79DF813B030BD0000403802400A
:10138000007000401048016841F4700101600F488E
:10139000016841F0010101600C4A0021083211602E
:1013A00002680B4B1A400260031D0A4A1A60026869
:1013B00022F48022026005480C3001600249580680
:1013C000803908607047000088ED00E00038024076
:1013D000FFFFF6FE103000240148FFF76ABC000052
:1013E00014000020F0B50268234B244D244E254FF5
:1013F000254C4FF0804C984209D0604507D0A84258
:1014000005D0B04203D0B84201D0A04204D122F0AE
:10141000700E4A6842EA0E0298421BD0604519D00D
:10142000A84217D0B04215D0B84213D0A04211D074
:10143000164DA8420ED0164DA8420BD0154DA8420D
:1014400008D0154DA84205D0144DA84202D0144D25
:10145000A84203D122F44075CA682A4302608A6810
:10146000C2620A688262984201D0A04201D1096931
:10147000016301214161F0BD000001400004004012
:1014800000080040000C0040000401400040014002
:10149000004401400048014000180040001C00408A
:1014A0000020004010B50123046A8B409C43046275
:1014B000036A8A401343036210BD10B5846842EA90
:1014C000032224F47F440A432243826010BD8268D1
:1014D00022F070020A4342F0070181607047000069
:1014E00030B5026A22F001020262026A436884692E
:1014F0000D6824F07304254322F002048A68224315
:101500000B4CA04202D00B4CA0420BD122F008049D
:10151000CA6823F4407322434C6922F004021C433E
:101520008B6923434360856149684163026230BD32
:10153000000001400004014030B5026A22F01002B0
:101540000262026A436884690D6824F4E64444EA4E
:1015500005248D6822F0200242EA05120D4DA842B2
:1015600002D00D4DA8420ED1CD6822F0800242EA91
:1015700005124D6923F4406343EA85038D6922F027
:10158000400243EA850343608461496881630262E3
:1015900030BD0000000001400004014030B5026A87
:1015A00022F480720262036A4268C46923F4007301
:1015B00024F073050C682C438D6843EA05230D4D18
:1015C000A84202D00C4DA8420ED1CD6823F400638E
:1015D00043EA05234D6922F4405242EA05128D691F
:1015E00023F4806342EA05124260C4614968C16322
:1015F000036230BD000001400004014030B5026AC2
:1016000022F480520262046A4268C3690D6823F4BE
:10161000E64343EA05238D6824F4005444EA053484
:10162000084DA84202D0084DA84204D14D6922F4C9
:10163000804242EA85124260C361496801640462E3
:1016400030BD0000000001400004014010B5036AF5
:10165000046A24F001040462846924F0F00444EA7A
:10166000021423F00A020A438461026210BD10B51D
:10167000036A23F0100303628369046A23F470434E
:1016800043EA023224F0A00343EA011182610162BD
:1016900010BDFEE702E008C8121F08C1002AFAD1F7
:1016A00070477047002001E001C1121F002AFBD1E2
:1016B00070470000FEF796FEFFF716FEFFF716FDD7
:1016C000FFF7BAFD3B48FFF76DFA00213948FFF7F5
:1016D00003FCDFF8E4A0002211465046FFF7E2FECB
:1016E000364DDFF8DCB0374C40F6AC5800264FF0F2
:1016F00001094FF4FA3700BFFFF76CFC012806D14F
:1017000066606670012200215046FFF7CBFEFFF7AE
:101710007DFC012807D12888323828802888322883
:1017200001D232202880FFF78DFC012807D12888BC
:101730006430288029884046814200D92880FFF7FC
:101740009DFC012807D1207850B10022082158467D
:10175000FEF735FE2670FFF7ADFC012808D015E036
:10176000012208215846FEF72AFE84F80090F2E78D
:101770006078012813D0012280215846FEF71FFE11
:1017800000210C48FFF7DEFB84F801906068B84246
:10179000B2D3002211465046FFF784FEACE7002288
:1017A00080215846FEF70BFE00210248FFF794FB0C
:1017B0006670EBE7140000200004014010000020D8
:1017C000000C0240000000200000000000000000AB
:1017D0000102030406070809F817000800000020AA
:1017E00014000000941600080C18000814000020D3
:1017F0003C100000A41600080000000000000000DB
:0C180000000000000024F400B80B000001
:040000050800018965
:00000001FF
